{
  "_format": "hh-sol-artifact-1",
  "contractName": "Domains",
  "sourceName": "contracts/Domains.sol",
  "abi": [
    {
      "inputs": [
        {
          "internalType": "string",
          "name": "_tld",
          "type": "string"
        }
      ],
      "stateMutability": "payable",
      "type": "constructor"
    },
    {
      "inputs": [],
      "name": "AlreadyRegistered",
      "type": "error"
    },
    {
      "inputs": [
        {
          "internalType": "string",
          "name": "name",
          "type": "string"
        }
      ],
      "name": "InvalidName",
      "type": "error"
    },
    {
      "inputs": [],
      "name": "Unauthorized",
      "type": "error"
    },
    {
      "anonymous": false,
      "inputs": [
        {
          "indexed": true,
          "internalType": "address",
          "name": "owner",
          "type": "address"
        },
        {
          "indexed": true,
          "internalType": "address",
          "name": "approved",
          "type": "address"
        },
        {
          "indexed": true,
          "internalType": "uint256",
          "name": "tokenId",
          "type": "uint256"
        }
      ],
      "name": "Approval",
      "type": "event"
    },
    {
      "anonymous": false,
      "inputs": [
        {
          "indexed": true,
          "internalType": "address",
          "name": "owner",
          "type": "address"
        },
        {
          "indexed": true,
          "internalType": "address",
          "name": "operator",
          "type": "address"
        },
        {
          "indexed": false,
          "internalType": "bool",
          "name": "approved",
          "type": "bool"
        }
      ],
      "name": "ApprovalForAll",
      "type": "event"
    },
    {
      "anonymous": false,
      "inputs": [
        {
          "indexed": true,
          "internalType": "address",
          "name": "from",
          "type": "address"
        },
        {
          "indexed": true,
          "internalType": "address",
          "name": "to",
          "type": "address"
        },
        {
          "indexed": true,
          "internalType": "uint256",
          "name": "tokenId",
          "type": "uint256"
        }
      ],
      "name": "Transfer",
      "type": "event"
    },
    {
      "inputs": [
        {
          "internalType": "address",
          "name": "to",
          "type": "address"
        },
        {
          "internalType": "uint256",
          "name": "tokenId",
          "type": "uint256"
        }
      ],
      "name": "approve",
      "outputs": [],
      "stateMutability": "nonpayable",
      "type": "function"
    },
    {
      "inputs": [
        {
          "internalType": "address",
          "name": "owner",
          "type": "address"
        }
      ],
      "name": "balanceOf",
      "outputs": [
        {
          "internalType": "uint256",
          "name": "",
          "type": "uint256"
        }
      ],
      "stateMutability": "view",
      "type": "function"
    },
    {
      "inputs": [
        {
          "internalType": "string",
          "name": "",
          "type": "string"
        }
      ],
      "name": "domains",
      "outputs": [
        {
          "internalType": "address",
          "name": "",
          "type": "address"
        }
      ],
      "stateMutability": "view",
      "type": "function"
    },
    {
      "inputs": [
        {
          "internalType": "string",
          "name": "name",
          "type": "string"
        }
      ],
      "name": "getAddress",
      "outputs": [
        {
          "internalType": "address",
          "name": "",
          "type": "address"
        }
      ],
      "stateMutability": "view",
      "type": "function"
    },
    {
      "inputs": [],
      "name": "getAllNames",
      "outputs": [
        {
          "internalType": "string[]",
          "name": "",
          "type": "string[]"
        }
      ],
      "stateMutability": "view",
      "type": "function"
    },
    {
      "inputs": [
        {
          "internalType": "uint256",
          "name": "tokenId",
          "type": "uint256"
        }
      ],
      "name": "getApproved",
      "outputs": [
        {
          "internalType": "address",
          "name": "",
          "type": "address"
        }
      ],
      "stateMutability": "view",
      "type": "function"
    },
    {
      "inputs": [
        {
          "internalType": "string",
          "name": "name",
          "type": "string"
        }
      ],
      "name": "getRecord",
      "outputs": [
        {
          "internalType": "string",
          "name": "",
          "type": "string"
        }
      ],
      "stateMutability": "view",
      "type": "function"
    },
    {
      "inputs": [
        {
          "internalType": "address",
          "name": "owner",
          "type": "address"
        },
        {
          "internalType": "address",
          "name": "operator",
          "type": "address"
        }
      ],
      "name": "isApprovedForAll",
      "outputs": [
        {
          "internalType": "bool",
          "name": "",
          "type": "bool"
        }
      ],
      "stateMutability": "view",
      "type": "function"
    },
    {
      "inputs": [],
      "name": "isOwner",
      "outputs": [
        {
          "internalType": "bool",
          "name": "",
          "type": "bool"
        }
      ],
      "stateMutability": "view",
      "type": "function"
    },
    {
      "inputs": [],
      "name": "name",
      "outputs": [
        {
          "internalType": "string",
          "name": "",
          "type": "string"
        }
      ],
      "stateMutability": "view",
      "type": "function"
    },
    {
      "inputs": [
        {
          "internalType": "uint256",
          "name": "",
          "type": "uint256"
        }
      ],
      "name": "names",
      "outputs": [
        {
          "internalType": "string",
          "name": "",
          "type": "string"
        }
      ],
      "stateMutability": "view",
      "type": "function"
    },
    {
      "inputs": [],
      "name": "owner",
      "outputs": [
        {
          "internalType": "address payable",
          "name": "",
          "type": "address"
        }
      ],
      "stateMutability": "view",
      "type": "function"
    },
    {
      "inputs": [
        {
          "internalType": "uint256",
          "name": "tokenId",
          "type": "uint256"
        }
      ],
      "name": "ownerOf",
      "outputs": [
        {
          "internalType": "address",
          "name": "",
          "type": "address"
        }
      ],
      "stateMutability": "view",
      "type": "function"
    },
    {
      "inputs": [
        {
          "internalType": "string",
          "name": "name",
          "type": "string"
        }
      ],
      "name": "price",
      "outputs": [
        {
          "internalType": "uint256",
          "name": "",
          "type": "uint256"
        }
      ],
      "stateMutability": "pure",
      "type": "function"
    },
    {
      "inputs": [
        {
          "internalType": "string",
          "name": "",
          "type": "string"
        }
      ],
      "name": "records",
      "outputs": [
        {
          "internalType": "string",
          "name": "",
          "type": "string"
        }
      ],
      "stateMutability": "view",
      "type": "function"
    },
    {
      "inputs": [
        {
          "internalType": "string",
          "name": "name",
          "type": "string"
        }
      ],
      "name": "registerDomain",
      "outputs": [],
      "stateMutability": "payable",
      "type": "function"
    },
    {
      "inputs": [
        {
          "internalType": "address",
          "name": "from",
          "type": "address"
        },
        {
          "internalType": "address",
          "name": "to",
          "type": "address"
        },
        {
          "internalType": "uint256",
          "name": "tokenId",
          "type": "uint256"
        }
      ],
      "name": "safeTransferFrom",
      "outputs": [],
      "stateMutability": "nonpayable",
      "type": "function"
    },
    {
      "inputs": [
        {
          "internalType": "address",
          "name": "from",
          "type": "address"
        },
        {
          "internalType": "address",
          "name": "to",
          "type": "address"
        },
        {
          "internalType": "uint256",
          "name": "tokenId",
          "type": "uint256"
        },
        {
          "internalType": "bytes",
          "name": "_data",
          "type": "bytes"
        }
      ],
      "name": "safeTransferFrom",
      "outputs": [],
      "stateMutability": "nonpayable",
      "type": "function"
    },
    {
      "inputs": [
        {
          "internalType": "address",
          "name": "operator",
          "type": "address"
        },
        {
          "internalType": "bool",
          "name": "approved",
          "type": "bool"
        }
      ],
      "name": "setApprovalForAll",
      "outputs": [],
      "stateMutability": "nonpayable",
      "type": "function"
    },
    {
      "inputs": [
        {
          "internalType": "string",
          "name": "name",
          "type": "string"
        },
        {
          "internalType": "string",
          "name": "record",
          "type": "string"
        }
      ],
      "name": "setRecord",
      "outputs": [],
      "stateMutability": "nonpayable",
      "type": "function"
    },
    {
      "inputs": [
        {
          "internalType": "bytes4",
          "name": "interfaceId",
          "type": "bytes4"
        }
      ],
      "name": "supportsInterface",
      "outputs": [
        {
          "internalType": "bool",
          "name": "",
          "type": "bool"
        }
      ],
      "stateMutability": "view",
      "type": "function"
    },
    {
      "inputs": [],
      "name": "symbol",
      "outputs": [
        {
          "internalType": "string",
          "name": "",
          "type": "string"
        }
      ],
      "stateMutability": "view",
      "type": "function"
    },
    {
      "inputs": [],
      "name": "tld",
      "outputs": [
        {
          "internalType": "string",
          "name": "",
          "type": "string"
        }
      ],
      "stateMutability": "view",
      "type": "function"
    },
    {
      "inputs": [
        {
          "internalType": "uint256",
          "name": "tokenId",
          "type": "uint256"
        }
      ],
      "name": "tokenURI",
      "outputs": [
        {
          "internalType": "string",
          "name": "",
          "type": "string"
        }
      ],
      "stateMutability": "view",
      "type": "function"
    },
    {
      "inputs": [
        {
          "internalType": "address",
          "name": "from",
          "type": "address"
        },
        {
          "internalType": "address",
          "name": "to",
          "type": "address"
        },
        {
          "internalType": "uint256",
          "name": "tokenId",
          "type": "uint256"
        }
      ],
      "name": "transferFrom",
      "outputs": [],
      "stateMutability": "nonpayable",
      "type": "function"
    },
    {
      "inputs": [
        {
          "internalType": "string",
          "name": "name",
          "type": "string"
        }
      ],
      "name": "valid",
      "outputs": [
        {
          "internalType": "bool",
          "name": "",
          "type": "bool"
        }
      ],
      "stateMutability": "pure",
      "type": "function"
    },
    {
      "inputs": [],
      "name": "withdraw",
      "outputs": [],
      "stateMutability": "nonpayable",
      "type": "function"
    }
  ],
  "bytecode": "0x6080604052604051806108a0016040528061086b81526020016200581861086b9139600a908051906020019062000038929190620002c8565b506040518060400160405280600d81526020017f3c2f746578743e3c2f7376673e00000000000000000000000000000000000000815250600b908051906020019062000086929190620002c8565b5060405162006083380380620060838339818101604052810190620000ac919062000515565b6040518060400160405280601981526020017f646f6d61696e207365727669636573206f66206d6f72646f72000000000000008152506040518060400160405280600381526020017f4d4f520000000000000000000000000000000000000000000000000000000000815250816000908051906020019062000130929190620002c8565b50806001908051906020019062000149929190620002c8565b50505033600860006101000a81548173ffffffffffffffffffffffffffffffffffffffff021916908373ffffffffffffffffffffffffffffffffffffffff1602179055508060099080519060200190620001a5929190620002c8565b50620001f26040518060400160405280601881526020017f2573206e616d652073657276696365206465706c6f796564000000000000000081525082620001f960201b62001da81760201c565b5062000663565b6200029b828260405160240162000212929190620005c3565b6040516020818303038152906040527f4b5c4277000000000000000000000000000000000000000000000000000000007bffffffffffffffffffffffffffffffffffffffffffffffffffffffff19166020820180517bffffffffffffffffffffffffffffffffffffffffffffffffffffffff83818316178352505050506200029f60201b60201c565b5050565b60008151905060006a636f6e736f6c652e6c6f679050602083016000808483855afa5050505050565b828054620002d6906200062d565b90600052602060002090601f016020900481019282620002fa576000855562000346565b82601f106200031557805160ff191683800117855562000346565b8280016001018555821562000346579182015b828111156200034557825182559160200191906001019062000328565b5b50905062000355919062000359565b5090565b5b80821115620003745760008160009055506001016200035a565b5090565b6000604051905090565b600080fd5b600080fd5b600080fd5b600080fd5b6000601f19601f8301169050919050565b7f4e487b7100000000000000000000000000000000000000000000000000000000600052604160045260246000fd5b620003e18262000396565b810181811067ffffffffffffffff82111715620004035762000402620003a7565b5b80604052505050565b60006200041862000378565b9050620004268282620003d6565b919050565b600067ffffffffffffffff821115620004495762000448620003a7565b5b620004548262000396565b9050602081019050919050565b60005b838110156200048157808201518184015260208101905062000464565b8381111562000491576000848401525b50505050565b6000620004ae620004a8846200042b565b6200040c565b905082815260208101848484011115620004cd57620004cc62000391565b5b620004da84828562000461565b509392505050565b600082601f830112620004fa57620004f96200038c565b5b81516200050c84826020860162000497565b91505092915050565b6000602082840312156200052e576200052d62000382565b5b600082015167ffffffffffffffff8111156200054f576200054e62000387565b5b6200055d84828501620004e2565b91505092915050565b600081519050919050565b600082825260208201905092915050565b60006200058f8262000566565b6200059b818562000571565b9350620005ad81856020860162000461565b620005b88162000396565b840191505092915050565b60006040820190508181036000830152620005df818562000582565b90508181036020830152620005f5818462000582565b90509392505050565b7f4e487b7100000000000000000000000000000000000000000000000000000000600052602260045260246000fd5b600060028204905060018216806200064657607f821691505b602082108114156200065d576200065c620005fe565b5b50919050565b6151a580620006736000396000f3fe60806040526004361061019c5760003560e01c806370a08231116100ec578063b88d4fde1161008a578063c87b56dd11610064578063c87b56dd14610603578063e985e9c514610640578063fb825e5f1461067d578063fe2c6198146106a85761019c565b8063b88d4fde14610574578063bf40fac11461059d578063c1880a98146105da5761019c565b806395d89b41116100c657806395d89b41146104c75780639791c097146104f2578063a22cb4651461052f578063a5cad08a146105585761019c565b806370a08231146104345780638da5cb5b146104715780638f32d59b1461049c5761019c565b8063264492351161015957806342842e0e1161013357806342842e0e146103545780634622ab031461037d578063541e771d146103ba5780636352211e146103f75761019c565b806326449235146102d55780632d551432146103125780633ccfd60b1461033d5761019c565b806301ffc9a7146101a157806306fdde03146101de578063081812fc14610209578063095ea7b31461024657806311dd88451461026f57806323b872dd146102ac575b600080fd5b3480156101ad57600080fd5b506101c860048036038101906101c3919061330d565b6106e5565b6040516101d59190613355565b60405180910390f35b3480156101ea57600080fd5b506101f36107c7565b6040516102009190613409565b60405180910390f35b34801561021557600080fd5b50610230600480360381019061022b9190613461565b610859565b60405161023d91906134cf565b60405180910390f35b34801561025257600080fd5b5061026d60048036038101906102689190613516565b6108de565b005b34801561027b57600080fd5b50610296600480360381019061029191906135bb565b6109f6565b6040516102a39190613409565b60405180910390f35b3480156102b857600080fd5b506102d360048036038101906102ce9190613608565b610aa9565b005b3480156102e157600080fd5b506102fc60048036038101906102f7919061378b565b610b09565b60405161030991906134cf565b60405180910390f35b34801561031e57600080fd5b50610327610b52565b6040516103349190613409565b60405180910390f35b34801561034957600080fd5b50610352610be0565b005b34801561036057600080fd5b5061037b60048036038101906103769190613608565b610ca6565b005b34801561038957600080fd5b506103a4600480360381019061039f9190613461565b610cc6565b6040516103b19190613409565b60405180910390f35b3480156103c657600080fd5b506103e160048036038101906103dc919061378b565b610d66565b6040516103ee9190613409565b60405180910390f35b34801561040357600080fd5b5061041e60048036038101906104199190613461565b610e1c565b60405161042b91906134cf565b60405180910390f35b34801561044057600080fd5b5061045b600480360381019061045691906137d4565b610ece565b6040516104689190613810565b60405180910390f35b34801561047d57600080fd5b50610486610f86565b604051610493919061384c565b60405180910390f35b3480156104a857600080fd5b506104b1610fac565b6040516104be9190613355565b60405180910390f35b3480156104d357600080fd5b506104dc611004565b6040516104e99190613409565b60405180910390f35b3480156104fe57600080fd5b50610519600480360381019061051491906135bb565b611096565b6040516105269190613355565b60405180910390f35b34801561053b57600080fd5b5061055660048036038101906105519190613893565b61114a565b005b610572600480360381019061056d91906135bb565b611160565b005b34801561058057600080fd5b5061059b60048036038101906105969190613974565b611711565b005b3480156105a957600080fd5b506105c460048036038101906105bf91906135bb565b611773565b6040516105d191906134cf565b60405180910390f35b3480156105e657600080fd5b5061060160048036038101906105fc91906139f7565b6117be565b005b34801561060f57600080fd5b5061062a60048036038101906106259190613461565b611947565b6040516106379190613409565b60405180910390f35b34801561064c57600080fd5b5061066760048036038101906106629190613a78565b611a99565b6040516106749190613355565b60405180910390f35b34801561068957600080fd5b50610692611b2d565b60405161069f9190613bc4565b60405180910390f35b3480156106b457600080fd5b506106cf60048036038101906106ca91906135bb565b611ccd565b6040516106dc9190613810565b60405180910390f35b60007f80ac58cd000000000000000000000000000000000000000000000000000000007bffffffffffffffffffffffffffffffffffffffffffffffffffffffff1916827bffffffffffffffffffffffffffffffffffffffffffffffffffffffff191614806107b057507f5b5e139f000000000000000000000000000000000000000000000000000000007bffffffffffffffffffffffffffffffffffffffffffffffffffffffff1916827bffffffffffffffffffffffffffffffffffffffffffffffffffffffff1916145b806107c057506107bf82611e44565b5b9050919050565b6060600080546107d690613c15565b80601f016020809104026020016040519081016040528092919081815260200182805461080290613c15565b801561084f5780601f106108245761010080835404028352916020019161084f565b820191906000526020600020905b81548152906001019060200180831161083257829003601f168201915b5050505050905090565b600061086482611eae565b6108a3576040517f08c379a000000000000000000000000000000000000000000000000000000000815260040161089a90613cb9565b60405180910390fd5b6004600083815260200190815260200160002060009054906101000a900473ffffffffffffffffffffffffffffffffffffffff169050919050565b60006108e982610e1c565b90508073ffffffffffffffffffffffffffffffffffffffff168373ffffffffffffffffffffffffffffffffffffffff16141561095a576040517f08c379a000000000000000000000000000000000000000000000000000000000815260040161095190613d4b565b60405180910390fd5b8073ffffffffffffffffffffffffffffffffffffffff16610979611f1a565b73ffffffffffffffffffffffffffffffffffffffff1614806109a857506109a7816109a2611f1a565b611a99565b5b6109e7576040517f08c379a00000000000000000000000000000000000000000000000000000000081526004016109de90613ddd565b60405180910390fd5b6109f18383611f22565b505050565b6060600d8383604051610a0a929190613e2d565b90815260200160405180910390208054610a2390613c15565b80601f0160208091040260200160405190810160405280929190818152602001828054610a4f90613c15565b8015610a9c5780601f10610a7157610100808354040283529160200191610a9c565b820191906000526020600020905b815481529060010190602001808311610a7f57829003601f168201915b5050505050905092915050565b610aba610ab4611f1a565b82611fdb565b610af9576040517f08c379a0000000000000000000000000000000000000000000000000000000008152600401610af090613eb8565b60405180910390fd5b610b048383836120b9565b505050565b600c818051602081018201805184825260208301602085012081835280955050505050506000915054906101000a900473ffffffffffffffffffffffffffffffffffffffff1681565b60098054610b5f90613c15565b80601f0160208091040260200160405190810160405280929190818152602001828054610b8b90613c15565b8015610bd85780601f10610bad57610100808354040283529160200191610bd8565b820191906000526020600020905b815481529060010190602001808311610bbb57829003601f168201915b505050505081565b610be8610fac565b610bf157600080fd5b600047905060003373ffffffffffffffffffffffffffffffffffffffff1682604051610c1c90613f09565b60006040518083038185875af1925050503d8060008114610c59576040519150601f19603f3d011682016040523d82523d6000602084013e610c5e565b606091505b5050905080610ca2576040517f08c379a0000000000000000000000000000000000000000000000000000000008152600401610c9990613f6a565b60405180910390fd5b5050565b610cc183838360405180602001604052806000815250611711565b505050565b600e6020528060005260406000206000915090508054610ce590613c15565b80601f0160208091040260200160405190810160405280929190818152602001828054610d1190613c15565b8015610d5e5780601f10610d3357610100808354040283529160200191610d5e565b820191906000526020600020905b815481529060010190602001808311610d4157829003601f168201915b505050505081565b600d818051602081018201805184825260208301602085012081835280955050505050506000915090508054610d9b90613c15565b80601f0160208091040260200160405190810160405280929190818152602001828054610dc790613c15565b8015610e145780601f10610de957610100808354040283529160200191610e14565b820191906000526020600020905b815481529060010190602001808311610df757829003601f168201915b505050505081565b6000806002600084815260200190815260200160002060009054906101000a900473ffffffffffffffffffffffffffffffffffffffff169050600073ffffffffffffffffffffffffffffffffffffffff168173ffffffffffffffffffffffffffffffffffffffff161415610ec5576040517f08c379a0000000000000000000000000000000000000000000000000000000008152600401610ebc90613ffc565b60405180910390fd5b80915050919050565b60008073ffffffffffffffffffffffffffffffffffffffff168273ffffffffffffffffffffffffffffffffffffffff161415610f3f576040517f08c379a0000000000000000000000000000000000000000000000000000000008152600401610f369061408e565b60405180910390fd5b600360008373ffffffffffffffffffffffffffffffffffffffff1673ffffffffffffffffffffffffffffffffffffffff168152602001908152602001600020549050919050565b600860009054906101000a900473ffffffffffffffffffffffffffffffffffffffff1681565b6000600860009054906101000a900473ffffffffffffffffffffffffffffffffffffffff1673ffffffffffffffffffffffffffffffffffffffff163373ffffffffffffffffffffffffffffffffffffffff1614905090565b60606001805461101390613c15565b80601f016020809104026020016040519081016040528092919081815260200182805461103f90613c15565b801561108c5780601f106110615761010080835404028352916020019161108c565b820191906000526020600020905b81548152906001019060200180831161106f57829003601f168201915b5050505050905090565b600060036110e784848080601f016020809104026020016040519081016040528093929190818152602001838380828437600081840152601f19601f82011690508083019250505050505050612320565b101580156111425750600a61113f84848080601f016020809104026020016040519081016040528093929190818152602001838380828437600081840152601f19601f82011690508083019250505050505050612320565b11155b905092915050565b61115c611155611f1a565b83836124d5565b5050565b600073ffffffffffffffffffffffffffffffffffffffff16600c838360405161118a929190613e2d565b908152602001604051809103902060009054906101000a900473ffffffffffffffffffffffffffffffffffffffff1673ffffffffffffffffffffffffffffffffffffffff1614611206576040517f3a81d6fc00000000000000000000000000000000000000000000000000000000815260040160405180910390fd5b6112108282611096565b6112535781816040517f7f19f48d00000000000000000000000000000000000000000000000000000000815260040161124a9291906140db565b60405180910390fd5b600073ffffffffffffffffffffffffffffffffffffffff16600c838360405161127d929190613e2d565b908152602001604051809103902060009054906101000a900473ffffffffffffffffffffffffffffffffffffffff1673ffffffffffffffffffffffffffffffffffffffff1614611302576040517f08c379a00000000000000000000000000000000000000000000000000000000081526004016112f990614171565b60405180910390fd5b600061130e8383611ccd565b905080341015611353576040517f08c379a000000000000000000000000000000000000000000000000000000000815260040161134a906141dd565b60405180910390fd5b60008383600960405160200161136b939291906142dd565b60405160208183030381529060405290506000600a82600b6040516020016113959392919061433f565b604051602081830303815290604052905060006113b26007612642565b9050600061140387878080601f016020809104026020016040519081016040528093929190818152602001838380828437600081840152601f19601f82011690508083019250505050505050612320565b9050600061141082612650565b90506115046040518060600160405280603181526020016150c66031913989898080601f016020809104026020016040519081016040528093929190818152602001838380828437600081840152601f19601f820116905080830192505050505050506009805461148090613c15565b80601f01602080910402602001604051908101604052809291908181526020018280546114ac90613c15565b80156114f95780601f106114ce576101008083540402835291602001916114f9565b820191906000526020600020905b8154815290600101906020018083116114dc57829003601f168201915b5050505050866127b1565b600061153a8661151387612853565b8460405160200161152693929190614538565b604051602081830303815290604052612853565b905060008160405160200161154f91906145ec565b604051602081830303815290604052905061158160405180606001604052806039815260200161508d603991396129cc565b6115c06040518060400160405280600e81526020017f46696e616c20746f6b656e55524900000000000000000000000000000000000081525082611da8565b6115e16040518060600160405280603981526020016150f7603991396129cc565b6115eb3386612a65565b6115f58582612a83565b33600c8b8b604051611608929190613e2d565b908152602001604051809103902060006101000a81548173ffffffffffffffffffffffffffffffffffffffff021916908373ffffffffffffffffffffffffffffffffffffffff16021790555061165e6007612af7565b6116e26040518060400160405280601d81526020017f2573206861732072656769737465722074686520646f6d61696e202573000000815250338c8c8080601f016020809104026020016040519081016040528093929190818152602001838380828437600081840152601f19601f82011690508083019250505050505050612b0d565b8989600e60008881526020019081526020016000209190611704929190613178565b5050505050505050505050565b61172261171c611f1a565b83611fdb565b611761576040517f08c379a000000000000000000000000000000000000000000000000000000000815260040161175890613eb8565b60405180910390fd5b61176d84848484612bac565b50505050565b6000600c8383604051611787929190613e2d565b908152602001604051809103902060009054906101000a900473ffffffffffffffffffffffffffffffffffffffff16905092915050565b600c84846040516117d0929190613e2d565b908152602001604051809103902060009054906101000a900473ffffffffffffffffffffffffffffffffffffffff1673ffffffffffffffffffffffffffffffffffffffff163373ffffffffffffffffffffffffffffffffffffffff1614611863576040517f82b4290000000000000000000000000000000000000000000000000000000000815260040160405180910390fd5b3373ffffffffffffffffffffffffffffffffffffffff16600c858560405161188c929190613e2d565b908152602001604051809103902060009054906101000a900473ffffffffffffffffffffffffffffffffffffffff1673ffffffffffffffffffffffffffffffffffffffff1614611911576040517f08c379a000000000000000000000000000000000000000000000000000000000815260040161190890614680565b60405180910390fd5b8181600d8686604051611925929190613e2d565b90815260200160405180910390209190611940929190613178565b5050505050565b606061195282611eae565b611991576040517f08c379a000000000000000000000000000000000000000000000000000000000815260040161198890614712565b60405180910390fd5b60006006600084815260200190815260200160002080546119b190613c15565b80601f01602080910402602001604051908101604052809291908181526020018280546119dd90613c15565b8015611a2a5780601f106119ff57610100808354040283529160200191611a2a565b820191906000526020600020905b815481529060010190602001808311611a0d57829003601f168201915b505050505090506000611a3b612c08565b9050600081511415611a51578192505050611a94565b600082511115611a86578082604051602001611a6e929190614732565b60405160208183030381529060405292505050611a94565b611a8f84612c1f565b925050505b919050565b6000600560008473ffffffffffffffffffffffffffffffffffffffff1673ffffffffffffffffffffffffffffffffffffffff16815260200190815260200160002060008373ffffffffffffffffffffffffffffffffffffffff1673ffffffffffffffffffffffffffffffffffffffff16815260200190815260200160002060009054906101000a900460ff16905092915050565b60606000611b3b6007612642565b67ffffffffffffffff811115611b5457611b53613660565b5b604051908082528060200260200182016040528015611b8757816020015b6060815260200190600190039081611b725790505b50905060005b611b976007612642565b811015611cc557600e60008281526020019081526020016000208054611bbc90613c15565b80601f0160208091040260200160405190810160405280929190818152602001828054611be890613c15565b8015611c355780601f10611c0a57610100808354040283529160200191611c35565b820191906000526020600020905b815481529060010190602001808311611c1857829003601f168201915b5050505050828281518110611c4d57611c4c614756565b5b6020026020010181905250611cb26040518060400160405280601781526020017f4e616d6520666f7220746f6b656e20256420697320257300000000000000000081525082848481518110611ca557611ca4614756565b5b6020026020010151612cc6565b8080611cbd906147b4565b915050611b8d565b508091505090565b600080611d1d84848080601f016020809104026020016040519081016040528093929190818152602001838380828437600081840152601f19601f82011690508083019250505050505050612320565b905060008111611d62576040517f08c379a0000000000000000000000000000000000000000000000000000000008152600401611d5990614849565b60405180910390fd5b6003811415611d7c5767016345785d8a0000915050611da2565b6004811415611d955766470de4df820000915050611da2565b670429d069189e00009150505b92915050565b611e408282604051602401611dbe929190614869565b6040516020818303038152906040527f4b5c4277000000000000000000000000000000000000000000000000000000007bffffffffffffffffffffffffffffffffffffffffffffffffffffffff19166020820180517bffffffffffffffffffffffffffffffffffffffffffffffffffffffff8381831617835250505050612d65565b5050565b60007f01ffc9a7000000000000000000000000000000000000000000000000000000007bffffffffffffffffffffffffffffffffffffffffffffffffffffffff1916827bffffffffffffffffffffffffffffffffffffffffffffffffffffffff1916149050919050565b60008073ffffffffffffffffffffffffffffffffffffffff166002600084815260200190815260200160002060009054906101000a900473ffffffffffffffffffffffffffffffffffffffff1673ffffffffffffffffffffffffffffffffffffffff1614159050919050565b600033905090565b816004600083815260200190815260200160002060006101000a81548173ffffffffffffffffffffffffffffffffffffffff021916908373ffffffffffffffffffffffffffffffffffffffff160217905550808273ffffffffffffffffffffffffffffffffffffffff16611f9583610e1c565b73ffffffffffffffffffffffffffffffffffffffff167f8c5be1e5ebec7d5bd14f71427d1e84f3dd0314c0f7b2291e5b200ac8c7c3b92560405160405180910390a45050565b6000611fe682611eae565b612025576040517f08c379a000000000000000000000000000000000000000000000000000000000815260040161201c90614912565b60405180910390fd5b600061203083610e1c565b90508073ffffffffffffffffffffffffffffffffffffffff168473ffffffffffffffffffffffffffffffffffffffff16148061209f57508373ffffffffffffffffffffffffffffffffffffffff1661208784610859565b73ffffffffffffffffffffffffffffffffffffffff16145b806120b057506120af8185611a99565b5b91505092915050565b8273ffffffffffffffffffffffffffffffffffffffff166120d982610e1c565b73ffffffffffffffffffffffffffffffffffffffff161461212f576040517f08c379a0000000000000000000000000000000000000000000000000000000008152600401612126906149a4565b60405180910390fd5b600073ffffffffffffffffffffffffffffffffffffffff168273ffffffffffffffffffffffffffffffffffffffff16141561219f576040517f08c379a000000000000000000000000000000000000000000000000000000000815260040161219690614a36565b60405180910390fd5b6121aa838383612d8e565b6121b5600082611f22565b6001600360008573ffffffffffffffffffffffffffffffffffffffff1673ffffffffffffffffffffffffffffffffffffffff16815260200190815260200160002060008282546122059190614a56565b925050819055506001600360008473ffffffffffffffffffffffffffffffffffffffff1673ffffffffffffffffffffffffffffffffffffffff168152602001908152602001600020600082825461225c9190614a8a565b92505081905550816002600083815260200190815260200160002060006101000a81548173ffffffffffffffffffffffffffffffffffffffff021916908373ffffffffffffffffffffffffffffffffffffffff160217905550808273ffffffffffffffffffffffffffffffffffffffff168473ffffffffffffffffffffffffffffffffffffffff167fddf252ad1be2c89b69c2b068fc378daa952ba7f163c4a11628f55a4df523b3ef60405160405180910390a461231b838383612d93565b505050565b60008060008084519050600092505b808210156124ca57600085838151811061234c5761234b614756565b5b602001015160f81c60f81b9050608060f81b817effffffffffffffffffffffffffffffffffffffffffffffffffffffffffffff1916101561239b576001836123949190614a8a565b92506124b6565b60e060f81b817effffffffffffffffffffffffffffffffffffffffffffffffffffffffffffff191610156123dd576002836123d69190614a8a565b92506124b5565b60f060f81b817effffffffffffffffffffffffffffffffffffffffffffffffffffffffffffff1916101561241f576003836124189190614a8a565b92506124b4565b60f8801b817effffffffffffffffffffffffffffffffffffffffffffffffffffffffffffff19161015612460576004836124599190614a8a565b92506124b3565b60fc60f81b817effffffffffffffffffffffffffffffffffffffffffffffffffffffffffffff191610156124a25760058361249b9190614a8a565b92506124b2565b6006836124af9190614a8a565b92505b5b5b5b5b5082806124c2906147b4565b93505061232f565b829350505050919050565b8173ffffffffffffffffffffffffffffffffffffffff168373ffffffffffffffffffffffffffffffffffffffff161415612544576040517f08c379a000000000000000000000000000000000000000000000000000000000815260040161253b90614b2c565b60405180910390fd5b80600560008573ffffffffffffffffffffffffffffffffffffffff1673ffffffffffffffffffffffffffffffffffffffff16815260200190815260200160002060008473ffffffffffffffffffffffffffffffffffffffff1673ffffffffffffffffffffffffffffffffffffffff16815260200190815260200160002060006101000a81548160ff0219169083151502179055508173ffffffffffffffffffffffffffffffffffffffff168373ffffffffffffffffffffffffffffffffffffffff167f17307eab39ab6107e8899845ad3d59bd9653f200f220920489ca2b5937696c31836040516126359190613355565b60405180910390a3505050565b600081600001549050919050565b60606000821415612698576040518060400160405280600181526020017f300000000000000000000000000000000000000000000000000000000000000081525090506127ac565b600082905060005b600082146126ca5780806126b3906147b4565b915050600a826126c39190614b7b565b91506126a0565b60008167ffffffffffffffff8111156126e6576126e5613660565b5b6040519080825280601f01601f1916602001820160405280156127185781602001600182028036833780820191505090505b5090505b600085146127a5576001826127319190614a56565b9150600a856127409190614bac565b603061274c9190614a8a565b60f81b81838151811061276257612761614756565b5b60200101907effffffffffffffffffffffffffffffffffffffffffffffffffffffffffffff1916908160001a905350600a8561279e9190614b7b565b945061271c565b8093505050505b919050565b61284d848484846040516024016127cb9493929190614bdd565b6040516020818303038152906040527f9fd009f5000000000000000000000000000000000000000000000000000000007bffffffffffffffffffffffffffffffffffffffffffffffffffffffff19166020820180517bffffffffffffffffffffffffffffffffffffffffffffffffffffffff8381831617835250505050612d65565b50505050565b6060600082511415612876576040518060200160405280600081525090506129c7565b600060405180606001604052806040815260200161513060409139905060006003600285516128a59190614a8a565b6128af9190614b7b565b60046128bb9190614c37565b905060006020826128cc9190614a8a565b67ffffffffffffffff8111156128e5576128e4613660565b5b6040519080825280601f01601f1916602001820160405280156129175781602001600182028036833780820191505090505b509050818152600183018586518101602084015b81831015612986576003830192508251603f8160121c168501518253600182019150603f81600c1c168501518253600182019150603f8160061c168501518253600182019150603f811685015182536001820191505061292b565b6003895106600181146129a057600281146129b0576129bb565b613d3d60f01b60028303526129bb565b603d60f81b60018303525b50505050508093505050505b919050565b612a62816040516024016129e09190613409565b6040516020818303038152906040527f41304fac000000000000000000000000000000000000000000000000000000007bffffffffffffffffffffffffffffffffffffffffffffffffffffffff19166020820180517bffffffffffffffffffffffffffffffffffffffffffffffffffffffff8381831617835250505050612d65565b50565b612a7f828260405180602001604052806000815250612d98565b5050565b612a8c82611eae565b612acb576040517f08c379a0000000000000000000000000000000000000000000000000000000008152600401612ac290614d03565b60405180910390fd5b80600660008481526020019081526020016000209080519060200190612af29291906131fe565b505050565b6001816000016000828254019250508190555050565b612ba7838383604051602401612b2593929190614d23565b6040516020818303038152906040527fe0e9ad4f000000000000000000000000000000000000000000000000000000007bffffffffffffffffffffffffffffffffffffffffffffffffffffffff19166020820180517bffffffffffffffffffffffffffffffffffffffffffffffffffffffff8381831617835250505050612d65565b505050565b612bb78484846120b9565b612bc384848484612df3565b612c02576040517f08c379a0000000000000000000000000000000000000000000000000000000008152600401612bf990614dda565b60405180910390fd5b50505050565b606060405180602001604052806000815250905090565b6060612c2a82611eae565b612c69576040517f08c379a0000000000000000000000000000000000000000000000000000000008152600401612c6090614e6c565b60405180910390fd5b6000612c73612c08565b90506000815111612c935760405180602001604052806000815250612cbe565b80612c9d84612650565b604051602001612cae929190614732565b6040516020818303038152906040525b915050919050565b612d60838383604051602401612cde93929190614e8c565b6040516020818303038152906040527fa3f5c739000000000000000000000000000000000000000000000000000000007bffffffffffffffffffffffffffffffffffffffffffffffffffffffff19166020820180517bffffffffffffffffffffffffffffffffffffffffffffffffffffffff8381831617835250505050612d65565b505050565b60008151905060006a636f6e736f6c652e6c6f679050602083016000808483855afa5050505050565b505050565b505050565b612da28383612f7b565b612daf6000848484612df3565b612dee576040517f08c379a0000000000000000000000000000000000000000000000000000000008152600401612de590614dda565b60405180910390fd5b505050565b6000612e148473ffffffffffffffffffffffffffffffffffffffff16613155565b15612f6e578373ffffffffffffffffffffffffffffffffffffffff1663150b7a02612e3d611f1a565b8786866040518563ffffffff1660e01b8152600401612e5f9493929190614f26565b6020604051808303816000875af1925050508015612e9b57506040513d601f19601f82011682018060405250810190612e989190614f87565b60015b612f1e573d8060008114612ecb576040519150601f19603f3d011682016040523d82523d6000602084013e612ed0565b606091505b50600081511415612f16576040517f08c379a0000000000000000000000000000000000000000000000000000000008152600401612f0d90614dda565b60405180910390fd5b805181602001fd5b63150b7a0260e01b7bffffffffffffffffffffffffffffffffffffffffffffffffffffffff1916817bffffffffffffffffffffffffffffffffffffffffffffffffffffffff191614915050612f73565b600190505b949350505050565b600073ffffffffffffffffffffffffffffffffffffffff168273ffffffffffffffffffffffffffffffffffffffff161415612feb576040517f08c379a0000000000000000000000000000000000000000000000000000000008152600401612fe290615000565b60405180910390fd5b612ff481611eae565b15613034576040517f08c379a000000000000000000000000000000000000000000000000000000000815260040161302b9061506c565b60405180910390fd5b61304060008383612d8e565b6001600360008473ffffffffffffffffffffffffffffffffffffffff1673ffffffffffffffffffffffffffffffffffffffff16815260200190815260200160002060008282546130909190614a8a565b92505081905550816002600083815260200190815260200160002060006101000a81548173ffffffffffffffffffffffffffffffffffffffff021916908373ffffffffffffffffffffffffffffffffffffffff160217905550808273ffffffffffffffffffffffffffffffffffffffff16600073ffffffffffffffffffffffffffffffffffffffff167fddf252ad1be2c89b69c2b068fc378daa952ba7f163c4a11628f55a4df523b3ef60405160405180910390a461315160008383612d93565b5050565b6000808273ffffffffffffffffffffffffffffffffffffffff163b119050919050565b82805461318490613c15565b90600052602060002090601f0160209004810192826131a657600085556131ed565b82601f106131bf57803560ff19168380011785556131ed565b828001600101855582156131ed579182015b828111156131ec5782358255916020019190600101906131d1565b5b5090506131fa9190613284565b5090565b82805461320a90613c15565b90600052602060002090601f01602090048101928261322c5760008555613273565b82601f1061324557805160ff1916838001178555613273565b82800160010185558215613273579182015b82811115613272578251825591602001919060010190613257565b5b5090506132809190613284565b5090565b5b8082111561329d576000816000905550600101613285565b5090565b6000604051905090565b600080fd5b600080fd5b60007fffffffff0000000000000000000000000000000000000000000000000000000082169050919050565b6132ea816132b5565b81146132f557600080fd5b50565b600081359050613307816132e1565b92915050565b600060208284031215613323576133226132ab565b5b6000613331848285016132f8565b91505092915050565b60008115159050919050565b61334f8161333a565b82525050565b600060208201905061336a6000830184613346565b92915050565b600081519050919050565b600082825260208201905092915050565b60005b838110156133aa57808201518184015260208101905061338f565b838111156133b9576000848401525b50505050565b6000601f19601f8301169050919050565b60006133db82613370565b6133e5818561337b565b93506133f581856020860161338c565b6133fe816133bf565b840191505092915050565b6000602082019050818103600083015261342381846133d0565b905092915050565b6000819050919050565b61343e8161342b565b811461344957600080fd5b50565b60008135905061345b81613435565b92915050565b600060208284031215613477576134766132ab565b5b60006134858482850161344c565b91505092915050565b600073ffffffffffffffffffffffffffffffffffffffff82169050919050565b60006134b98261348e565b9050919050565b6134c9816134ae565b82525050565b60006020820190506134e460008301846134c0565b92915050565b6134f3816134ae565b81146134fe57600080fd5b50565b600081359050613510816134ea565b92915050565b6000806040838503121561352d5761352c6132ab565b5b600061353b85828601613501565b925050602061354c8582860161344c565b9150509250929050565b600080fd5b600080fd5b600080fd5b60008083601f84011261357b5761357a613556565b5b8235905067ffffffffffffffff8111156135985761359761355b565b5b6020830191508360018202830111156135b4576135b3613560565b5b9250929050565b600080602083850312156135d2576135d16132ab565b5b600083013567ffffffffffffffff8111156135f0576135ef6132b0565b5b6135fc85828601613565565b92509250509250929050565b600080600060608486031215613621576136206132ab565b5b600061362f86828701613501565b935050602061364086828701613501565b92505060406136518682870161344c565b9150509250925092565b600080fd5b7f4e487b7100000000000000000000000000000000000000000000000000000000600052604160045260246000fd5b613698826133bf565b810181811067ffffffffffffffff821117156136b7576136b6613660565b5b80604052505050565b60006136ca6132a1565b90506136d6828261368f565b919050565b600067ffffffffffffffff8211156136f6576136f5613660565b5b6136ff826133bf565b9050602081019050919050565b82818337600083830152505050565b600061372e613729846136db565b6136c0565b90508281526020810184848401111561374a5761374961365b565b5b61375584828561370c565b509392505050565b600082601f83011261377257613771613556565b5b813561378284826020860161371b565b91505092915050565b6000602082840312156137a1576137a06132ab565b5b600082013567ffffffffffffffff8111156137bf576137be6132b0565b5b6137cb8482850161375d565b91505092915050565b6000602082840312156137ea576137e96132ab565b5b60006137f884828501613501565b91505092915050565b61380a8161342b565b82525050565b60006020820190506138256000830184613801565b92915050565b60006138368261348e565b9050919050565b6138468161382b565b82525050565b6000602082019050613861600083018461383d565b92915050565b6138708161333a565b811461387b57600080fd5b50565b60008135905061388d81613867565b92915050565b600080604083850312156138aa576138a96132ab565b5b60006138b885828601613501565b92505060206138c98582860161387e565b9150509250929050565b600067ffffffffffffffff8211156138ee576138ed613660565b5b6138f7826133bf565b9050602081019050919050565b6000613917613912846138d3565b6136c0565b9050828152602081018484840111156139335761393261365b565b5b61393e84828561370c565b509392505050565b600082601f83011261395b5761395a613556565b5b813561396b848260208601613904565b91505092915050565b6000806000806080858703121561398e5761398d6132ab565b5b600061399c87828801613501565b94505060206139ad87828801613501565b93505060406139be8782880161344c565b925050606085013567ffffffffffffffff8111156139df576139de6132b0565b5b6139eb87828801613946565b91505092959194509250565b60008060008060408587031215613a1157613a106132ab565b5b600085013567ffffffffffffffff811115613a2f57613a2e6132b0565b5b613a3b87828801613565565b9450945050602085013567ffffffffffffffff811115613a5e57613a5d6132b0565b5b613a6a87828801613565565b925092505092959194509250565b60008060408385031215613a8f57613a8e6132ab565b5b6000613a9d85828601613501565b9250506020613aae85828601613501565b9150509250929050565b600081519050919050565b600082825260208201905092915050565b6000819050602082019050919050565b600082825260208201905092915050565b6000613b0082613370565b613b0a8185613ae4565b9350613b1a81856020860161338c565b613b23816133bf565b840191505092915050565b6000613b3a8383613af5565b905092915050565b6000602082019050919050565b6000613b5a82613ab8565b613b648185613ac3565b935083602082028501613b7685613ad4565b8060005b85811015613bb25784840389528151613b938582613b2e565b9450613b9e83613b42565b925060208a01995050600181019050613b7a565b50829750879550505050505092915050565b60006020820190508181036000830152613bde8184613b4f565b905092915050565b7f4e487b7100000000000000000000000000000000000000000000000000000000600052602260045260246000fd5b60006002820490506001821680613c2d57607f821691505b60208210811415613c4157613c40613be6565b5b50919050565b7f4552433732313a20617070726f76656420717565727920666f72206e6f6e657860008201527f697374656e7420746f6b656e0000000000000000000000000000000000000000602082015250565b6000613ca3602c8361337b565b9150613cae82613c47565b604082019050919050565b60006020820190508181036000830152613cd281613c96565b9050919050565b7f4552433732313a20617070726f76616c20746f2063757272656e74206f776e6560008201527f7200000000000000000000000000000000000000000000000000000000000000602082015250565b6000613d3560218361337b565b9150613d4082613cd9565b604082019050919050565b60006020820190508181036000830152613d6481613d28565b9050919050565b7f4552433732313a20617070726f76652063616c6c6572206973206e6f74206f7760008201527f6e6572206e6f7220617070726f76656420666f7220616c6c0000000000000000602082015250565b6000613dc760388361337b565b9150613dd282613d6b565b604082019050919050565b60006020820190508181036000830152613df681613dba565b9050919050565b600081905092915050565b6000613e148385613dfd565b9350613e2183858461370c565b82840190509392505050565b6000613e3a828486613e08565b91508190509392505050565b7f4552433732313a207472616e736665722063616c6c6572206973206e6f74206f60008201527f776e6572206e6f7220617070726f766564000000000000000000000000000000602082015250565b6000613ea260318361337b565b9150613ead82613e46565b604082019050919050565b60006020820190508181036000830152613ed181613e95565b9050919050565b600081905092915050565b50565b6000613ef3600083613ed8565b9150613efe82613ee3565b600082019050919050565b6000613f1482613ee6565b9150819050919050565b7f6661696c656420746f207769746864726177206d617469630000000000000000600082015250565b6000613f5460188361337b565b9150613f5f82613f1e565b602082019050919050565b60006020820190508181036000830152613f8381613f47565b9050919050565b7f4552433732313a206f776e657220717565727920666f72206e6f6e657869737460008201527f656e7420746f6b656e0000000000000000000000000000000000000000000000602082015250565b6000613fe660298361337b565b9150613ff182613f8a565b604082019050919050565b6000602082019050818103600083015261401581613fd9565b9050919050565b7f4552433732313a2062616c616e636520717565727920666f7220746865207a6560008201527f726f206164647265737300000000000000000000000000000000000000000000602082015250565b6000614078602a8361337b565b91506140838261401c565b604082019050919050565b600060208201905081810360008301526140a78161406b565b9050919050565b60006140ba838561337b565b93506140c783858461370c565b6140d0836133bf565b840190509392505050565b600060208201905081810360008301526140f68184866140ae565b90509392505050565b7f746865206f776e6572206d757374206e6f74206265207a65726f20616464726560008201527f7373000000000000000000000000000000000000000000000000000000000000602082015250565b600061415b60228361337b565b9150614166826140ff565b604082019050919050565b6000602082019050818103600083015261418a8161414e565b9050919050565b7f6e6f7420656e6f756768204d6174696320706169640000000000000000000000600082015250565b60006141c760158361337b565b91506141d282614191565b602082019050919050565b600060208201905081810360008301526141f6816141ba565b9050919050565b7f2e00000000000000000000000000000000000000000000000000000000000000600082015250565b6000614233600183613dfd565b915061423e826141fd565b600182019050919050565b60008190508160005260206000209050919050565b6000815461426b81613c15565b6142758186613dfd565b9450600182166000811461429057600181146142a1576142d4565b60ff198316865281860193506142d4565b6142aa85614249565b60005b838110156142cc578154818901526001820191506020810190506142ad565b838801955050505b50505092915050565b60006142ea828587613e08565b91506142f582614226565b9150614301828461425e565b9150819050949350505050565b600061431982613370565b6143238185613dfd565b935061433381856020860161338c565b80840191505092915050565b600061434b828661425e565b9150614357828561430e565b9150614363828461425e565b9150819050949350505050565b7f7b226e616d65223a202200000000000000000000000000000000000000000000600082015250565b60006143a6600a83613dfd565b91506143b182614370565b600a82019050919050565b7f222c6465736372697074696f6e223a20226120646f6d61696e206f66204d6f7260008201527f646f72206e616d65207365727669636573222c00000000000000000000000000602082015250565b6000614418603383613dfd565b9150614423826143bc565b603382019050919050565b7f22696d616765223a2022646174613a696d6167652f7376672b786d6c3b62617360008201527f6536342c00000000000000000000000000000000000000000000000000000000602082015250565b600061448a602483613dfd565b91506144958261442e565b602482019050919050565b7f222c226c656e677468223a220000000000000000000000000000000000000000600082015250565b60006144d6600c83613dfd565b91506144e1826144a0565b600c82019050919050565b7f227d000000000000000000000000000000000000000000000000000000000000600082015250565b6000614522600283613dfd565b915061452d826144ec565b600282019050919050565b600061454382614399565b915061454f828661430e565b915061455a8261440b565b91506145658261447d565b9150614571828561430e565b915061457c826144c9565b9150614588828461430e565b915061459382614515565b9150819050949350505050565b7f646174613a6170706c69636174696f6e2f6a736f6e3b6261736536342c000000600082015250565b60006145d6601d83613dfd565b91506145e1826145a0565b601d82019050919050565b60006145f7826145c9565b9150614603828461430e565b915081905092915050565b7f746865206f776e6572206d757374206f6e6c7920626520746865206f776e657260008201527f206f662074686520646f6d61696e000000000000000000000000000000000000602082015250565b600061466a602e8361337b565b91506146758261460e565b604082019050919050565b600060208201905081810360008301526146998161465d565b9050919050565b7f45524337323155524953746f726167653a2055524920717565727920666f722060008201527f6e6f6e6578697374656e7420746f6b656e000000000000000000000000000000602082015250565b60006146fc60318361337b565b9150614707826146a0565b604082019050919050565b6000602082019050818103600083015261472b816146ef565b9050919050565b600061473e828561430e565b915061474a828461430e565b91508190509392505050565b7f4e487b7100000000000000000000000000000000000000000000000000000000600052603260045260246000fd5b7f4e487b7100000000000000000000000000000000000000000000000000000000600052601160045260246000fd5b60006147bf8261342b565b91507fffffffffffffffffffffffffffffffffffffffffffffffffffffffffffffffff8214156147f2576147f1614785565b5b600182019050919050565b7f6e616d65206d757374206e6f7420626520656d70747900000000000000000000600082015250565b600061483360168361337b565b915061483e826147fd565b602082019050919050565b6000602082019050818103600083015261486281614826565b9050919050565b6000604082019050818103600083015261488381856133d0565b9050818103602083015261489781846133d0565b90509392505050565b7f4552433732313a206f70657261746f7220717565727920666f72206e6f6e657860008201527f697374656e7420746f6b656e0000000000000000000000000000000000000000602082015250565b60006148fc602c8361337b565b9150614907826148a0565b604082019050919050565b6000602082019050818103600083015261492b816148ef565b9050919050565b7f4552433732313a207472616e736665722066726f6d20696e636f72726563742060008201527f6f776e6572000000000000000000000000000000000000000000000000000000602082015250565b600061498e60258361337b565b915061499982614932565b604082019050919050565b600060208201905081810360008301526149bd81614981565b9050919050565b7f4552433732313a207472616e7366657220746f20746865207a65726f2061646460008201527f7265737300000000000000000000000000000000000000000000000000000000602082015250565b6000614a2060248361337b565b9150614a2b826149c4565b604082019050919050565b60006020820190508181036000830152614a4f81614a13565b9050919050565b6000614a618261342b565b9150614a6c8361342b565b925082821015614a7f57614a7e614785565b5b828203905092915050565b6000614a958261342b565b9150614aa08361342b565b9250827fffffffffffffffffffffffffffffffffffffffffffffffffffffffffffffffff03821115614ad557614ad4614785565b5b828201905092915050565b7f4552433732313a20617070726f766520746f2063616c6c657200000000000000600082015250565b6000614b1660198361337b565b9150614b2182614ae0565b602082019050919050565b60006020820190508181036000830152614b4581614b09565b9050919050565b7f4e487b7100000000000000000000000000000000000000000000000000000000600052601260045260246000fd5b6000614b868261342b565b9150614b918361342b565b925082614ba157614ba0614b4c565b5b828204905092915050565b6000614bb78261342b565b9150614bc28361342b565b925082614bd257614bd1614b4c565b5b828206905092915050565b60006080820190508181036000830152614bf781876133d0565b90508181036020830152614c0b81866133d0565b90508181036040830152614c1f81856133d0565b9050614c2e6060830184613801565b95945050505050565b6000614c428261342b565b9150614c4d8361342b565b9250817fffffffffffffffffffffffffffffffffffffffffffffffffffffffffffffffff0483118215151615614c8657614c85614785565b5b828202905092915050565b7f45524337323155524953746f726167653a2055524920736574206f66206e6f6e60008201527f6578697374656e7420746f6b656e000000000000000000000000000000000000602082015250565b6000614ced602e8361337b565b9150614cf882614c91565b604082019050919050565b60006020820190508181036000830152614d1c81614ce0565b9050919050565b60006060820190508181036000830152614d3d81866133d0565b9050614d4c60208301856134c0565b8181036040830152614d5e81846133d0565b9050949350505050565b7f4552433732313a207472616e7366657220746f206e6f6e20455243373231526560008201527f63656976657220696d706c656d656e7465720000000000000000000000000000602082015250565b6000614dc460328361337b565b9150614dcf82614d68565b604082019050919050565b60006020820190508181036000830152614df381614db7565b9050919050565b7f4552433732314d657461646174613a2055524920717565727920666f72206e6f60008201527f6e6578697374656e7420746f6b656e0000000000000000000000000000000000602082015250565b6000614e56602f8361337b565b9150614e6182614dfa565b604082019050919050565b60006020820190508181036000830152614e8581614e49565b9050919050565b60006060820190508181036000830152614ea681866133d0565b9050614eb56020830185613801565b8181036040830152614ec781846133d0565b9050949350505050565b600081519050919050565b600082825260208201905092915050565b6000614ef882614ed1565b614f028185614edc565b9350614f1281856020860161338c565b614f1b816133bf565b840191505092915050565b6000608082019050614f3b60008301876134c0565b614f4860208301866134c0565b614f556040830185613801565b8181036060830152614f678184614eed565b905095945050505050565b600081519050614f81816132e1565b92915050565b600060208284031215614f9d57614f9c6132ab565b5b6000614fab84828501614f72565b91505092915050565b7f4552433732313a206d696e7420746f20746865207a65726f2061646472657373600082015250565b6000614fea60208361337b565b9150614ff582614fb4565b602082019050919050565b6000602082019050818103600083015261501981614fdd565b9050919050565b7f4552433732313a20746f6b656e20616c7265616479206d696e74656400000000600082015250565b6000615056601c8361337b565b915061506182615020565b602082019050919050565b6000602082019050818103600083015261508581615049565b905091905056fe0a2d2d2d2d2d2d2d2d2d2d2d2d2d2d2d2d2d2d2d2d2d2d2d2d2d2d2d2d2d2d2d2d2d2d2d2d2d2d2d2d2d2d2d2d2d2d2d2d2d2d2d2d2d2d2d2d5265676973746572696e672025732e2573206f6e2074686520636f6e7472616374207769746820746f6b656e49442025642d2d2d2d2d2d2d2d2d2d2d2d2d2d2d2d2d2d2d2d2d2d2d2d2d2d2d2d2d2d2d2d2d2d2d2d2d2d2d2d2d2d2d2d2d2d2d2d2d2d2d2d2d2d2d2d0a4142434445464748494a4b4c4d4e4f505152535455565758595a6162636465666768696a6b6c6d6e6f707172737475767778797a303132333435363738392b2fa264697066735822122092e890de8809ee8146d9a881bad8e08da76f4cc282007d8c8e364ca0710e694c64736f6c634300080a00333c73766720786d6c6e733d22687474703a2f2f7777772e77332e6f72672f323030302f737667222077696474683d2232373022206865696768743d22323730222066696c6c3d226e6f6e65223e3c706174682066696c6c3d2275726c282342292220643d224d302030683237307632373048307a222f3e3c646566733e3c66696c7465722069643d22412220636f6c6f722d696e746572706f6c6174696f6e2d66696c746572733d2273524742222066696c746572556e6974733d227573657253706163654f6e55736522206865696768743d22323730222077696474683d22323730223e3c666544726f70536861646f772064783d2230222064793d22312220737464446576696174696f6e3d22322220666c6f6f642d6f7061636974793d222e323235222077696474683d223230302522206865696768743d2232303025222f3e3c2f66696c7465723e3c2f646566733e3c7061746820643d224d37322e3836332034322e393439632d2e3636382d2e3338372d312e3432362d2e35392d322e3139372d2e3539732d312e3532392e3230342d322e3139372e35396c2d31302e30383120362e3033322d362e383520332e3933342d31302e30383120362e303332632d2e3636382e3338372d312e3432362e35392d322e3139372e3539732d312e3532392d2e3230342d322e3139372d2e35396c2d382e3031332d342e37323161342e353220342e35322030203020312d312e3538392d312e363136632d2e3338342d2e3636352d2e3539342d312e3431382d2e3630382d322e313837762d392e3331632d2e3031332d2e3737352e3138352d312e3533382e3537322d322e32303861342e323520342e323520302030203120312e3632352d312e3539356c372e3838342d342e3539632e3636382d2e33383720312e3432362d2e353920322e3139372d2e353973312e3532392e32303420322e3139372e35396c372e38383420342e353961342e353220342e353220302030203120312e35383920312e363136632e3338342e3636352e35393420312e3431382e36303820322e31383776362e3033326c362e38352d342e303635762d362e303332632e3031332d2e3737352d2e3138352d312e3533382d2e3537322d322e32303861342e323520342e32352030203020302d312e3632352d312e3539354c34312e3435362032342e3539632d2e3636382d2e3338372d312e3432362d2e35392d322e3139372d2e3539732d312e3532392e3230342d322e3139372e35396c2d31342e38363420382e36353561342e323520342e32352030203020302d312e36323520312e353935632d2e3338372e36372d2e35383520312e3433342d2e35373220322e3230387631372e343431632d2e3031332e3737352e31383520312e3533382e35373220322e32303861342e323520342e323520302030203020312e36323520312e3539356c31342e38363420382e363535632e3636382e33383720312e3432362e353920322e3139372e353973312e3532392d2e32303420322e3139372d2e35396c31302e3038312d352e39303120362e38352d342e3036352031302e3038312d352e393031632e3636382d2e33383720312e3432362d2e353920322e3139372d2e353973312e3532392e32303420322e3139372e35396c372e38383420342e353961342e353220342e353220302030203120312e35383920312e363136632e3338342e3636352e35393420312e3431382e36303820322e31383776392e333131632e3031332e3737352d2e31383520312e3533382d2e35373220322e32303861342e323520342e32352030203020312d312e36323520312e3539356c2d372e38383420342e373231632d2e3636382e3338372d312e3432362e35392d322e3139372e3539732d312e3532392d2e3230342d322e3139372d2e35396c2d372e3838342d342e353961342e353220342e35322030203020312d312e3538392d312e363136632d2e3338352d2e3636352d2e3539342d312e3431382d2e3630382d322e313837762d362e3033326c2d362e383520342e30363576362e303332632d2e3031332e3737352e31383520312e3533382e35373220322e32303861342e323520342e323520302030203020312e36323520312e3539356c31342e38363420382e363535632e3636382e33383720312e3432362e353920322e3139372e353973312e3532392d2e32303420322e3139372d2e35396c31342e3836342d382e363535632e3635372d2e33393420312e3230342d2e393520312e3538392d312e363136732e3539342d312e3431382e3630392d322e3138375635352e353338632e3031332d2e3737352d2e3138352d312e3533382d2e3537322d322e32303861342e323520342e32352030203020302d312e3632352d312e3539356c2d31342e3939332d382e3738367a222066696c6c3d2223666666222f3e3c646566733e3c6c696e6561724772616469656e742069643d2242222078313d2230222079313d2230222078323d22323730222079323d2232373022206772616469656e74556e6974733d227573657253706163654f6e557365223e3c73746f702073746f702d636f6c6f723d2223636235656565222f3e3c73746f70206f66667365743d2231222073746f702d636f6c6f723d2223306364376534222073746f702d6f7061636974793d222e3939222f3e3c2f6c696e6561724772616469656e743e3c2f646566733e3c7465787420783d2233322e352220793d223233312220666f6e742d73697a653d223235222066696c6c3d2223666666222066696c7465723d2275726c282341292220666f6e742d66616d696c793d22506c7573204a616b617274612053616e732c44656a6156752053616e732c4e6f746f20436f6c6f7220456d6f6a692c4170706c6520436f6c6f7220456d6f6a692c73616e732d73657269662220666f6e742d7765696768743d22626f6c64223e",
  "linkReferences": {},
  "deployedLinkReferences": {}
}